:020000040800F2
:10000000E80600200D020008490200084B02000823
:100010004D0200084F0200085102000800000000D5
:100020000000000000000000000000005302000873
:10003000550200080000000057020008590200089D
:100040005B0200085B0200085B0200085B0200081C
:100050005B0200085B0200085B0200085B0200080C
:100060005B0200085B0200085B0200085B020008FC
:100070005B0200085B0200085B0200085B020008EC
:100080005B0200085B0200085B0200085B020008DC
:100090005B0200085B0200085B0200085B020008CC
:1000A0005B0200085B0200085B0200085B020008BC
:1000B0005B0200085B0200085B0200085B020008AC
:1000C0005B0200085B0200085B0200085B0200089C
:1000D0005B0200085B0200085B0200085B0200088C
:1000E0005B0200085B0200085B0200085B0200087C
:1000F0005B0200085B0200085B0200085B0200086C
:100100005B0200085B0200085B0200085B0200085B
:100110005B0200085B0200085B0200085B0200084B
:100120005B0200085B0200085B0200085B0200083B
:100130005B0200085B0200085B0200085B0200082B
:100140005B0200085B0200085B0200085B0200081B
:100150005B0200085B0200085B0200085B0200080B
:100160005B0200085B0200085B0200085B020008FB
:100170005B0200085B0200085B0200080000000050
:100180005B0200085B02000800F002F800F02EF8A5
:100190000AA090E8000C82448344AAF10107DA45E2
:1001A00001D100F023F8AFF2090EBAE80F0013F006
:1001B000010F18BFFB1A43F0010318475C0200004F
:1001C0006C0200000023002400250026103A28BFFE
:1001D00078C1FBD8520728BF30C148BF0B607047B9
:1001E0001FB500F013F91FBD10B510BD00F053F896
:1001F0001146FFF7F5FF00F0C6F800F071F803B400
:10020000FFF7F2FF03BC00F079F800001648174929
:10021000174B99423CBF50F8042B41F8042BF8D3FC
:1002200014494FF000028B4238BF43F8042BFAD335
:10023000DFF84400016841F470010160BFF34F8FA3
:10024000BFF36F8F0D480047FEE7FEE7FEE7FEE7CE
:10025000FEE7FEE7FEE7FEE7FEE7FEE7084809499E
:10026000094A0A4B704700002804000800000020DB
:1002700000000020E806002088ED00E08901000869
:10028000E8000020E8060020E8020020E802002044
:10029000704770477047754600F02CF8AE46050071
:1002A0006946534620F00700854618B020B5FFF791
:1002B000D5FFBDE820404FF000064FF000074FF09B
:1002C00000084FF0000B21F00701AC46ACE8C00974
:1002D000ACE8C009ACE8C009ACE8C0098D4670477D
:1002E00010B50446AFF300802046BDE81040FFF78C
:1002F00086BF000000487047880000200149182090
:10030000ABBEFEE7260002007047000010B50446B1
:10031000094800686FF30F000749086002230122B3
:10032000204600F00EF804230322034904F11000D4
:1003300000F007F810BD00000004004801600271E1
:1003400070472DE9F04104460E4617461D462A46E1
:10035000314604F10800FFF7F1FF3A4631462046E6
:10036000FFF7ECFF217B0122A06800F027F8217B3A
:100370000022A06800F03EF8217B0322A06800F074
:100380002BF8BDE8F08110B500F004F800F00CF88F
:10039000002010BD0348C06C40F0FF000149C86454
:1003A000704700000010024010B5FFF7F3FF02484D
:1003B000FFF7ACFF10BD00000000002030B503685F
:1003C0004D000324AC40A343036003684C0002FAD1
:1003D00004F42343036030BD30B583684D0003242B
:1003E000AC40A343836083684C0002FA04F42343C7
:1003F000836030BD10B5436801248C40A343436043
:10040000436802FA01F42343436010BD4FF040708B
:10041000E1EE100A704700002804000800000020E8
:08042000E8060000C401000819
:040000050800018965
:00000001FF
